:100000000C9467000C948F000C948F000C948F005C
:100010000C948F000C948F000C94A40E0C948F0001
:100020000C948F000C948F000C948F000C948F0014
:100030000C948F000C948F000C948F000C948F0004
:100040000C948B040C948F000C94F9020C942B03E9
:100050000C948F000C948F000C948F000C948F00E4
:100060000C948F000C948F00790C790C790CB80CDF
:10007000A30CB20C790C790CB80CA30C000000088E
:10008000000201000003040700000000000000005F
:10009000010204081020408001020408102001021F
:1000A00004081020040404040404040402020202EC
:1000B00002020303030303030000000025002800DD
:1000C0002B0000000000240027002A005B031124FD
:1000D0001FBECFEFD8E0DEBFCDBF11E0A0E0B1E0A2
:1000E000ECE1F5E202C005900D92AE35B107D9F70B
:1000F00022E0AEE5B1E001C01D92A339B207E1F7FD
:1001000010E0C7E6D0E004C02197FE010E9455111F
:10011000C636D107C9F70E9488030C948C120C9440
:100120000000CF93DF9300D000D000D0CDB7DEB772
:100130009A8389834B835C836D837E838B819C81CF
:10014000AD81BE81E981FA8126E0AC01BD01CF011C
:100150000E949402000026960FB6F894DEBF0FBEF0
:10016000CDBFDF91CF910895EF92FF920F93CF9380
:10017000DF93CDB7DEB740E052EC61E070E086E699
:1001800091E00E94910061E082E00E949A0561E0A6
:1001900083E00E949A0561E084E00E949A0561E094
:1001A0008DE00E949A050F2EFEE5EF2EF1E0FF2E66
:1001B000F02D02E020E030E044E650E066E071E03F
:1001C00084E391E00E94AA060F2EF0E6EF2EF1E004
:1001D000FF2EF02D02E020E030E044E650E064E144
:1001E00071E080E691E00E94AA060F2EF2E6EF2E63
:1001F000F1E0FF2EF02D02E020E030E044E650E098
:1002000062E271E08CE891E00E94AA060000DF91B2
:10021000CF910F91FF90EF900895CF93DF93CDB7DB
:10022000DEB761E08DE00E94D60568EE73E080E005
:1002300090E00E94FA0460E08DE00E94D60568EE2E
:1002400073E080E090E00E94FA0480916401909154
:1002500065014AE050E0BC0186E691E00E94790425
:100260000000DF91CF910895CF93DF9300D000D0AD
:100270001F92CDB7DEB79D838C8380E090E00E9413
:10028000590A89830E94EA079B838A8361E082E09E
:100290000E94D605CE01029660E070E00E94180927
:1002A00060E082E00E94D605CE01029660E070E038
:1002B0000E94180980E090E00E94590A8983E6CFE5
:1002C000CF93DF9300D000D01F92CDB7DEB79D83D0
:1002D0008C8380E090E00E94590A89830E94EA079B
:1002E0009B838A8361E083E00E94D605CE0102965B
:1002F00060E070E00E94180960E083E00E94D6058B
:10030000CE01029660E070E00E94180980E090E063
:100310000E94590A8983E6CFCF93DF9300D000D0A3
:100320001F92CDB7DEB79D838C8380E090E00E9462
:10033000590A89830E94EA079B838A8361E084E0EB
:100340000E94D605CE01029661E070E00E94180975
:1003500060E084E00E94D605CE01029661E070E084
:100360000E94180980E090E00E94590A8983E6CF34
:10037000FC01918D228D892F90E0805C9F4F821B24
:1003800091098F7399270895FC01918D828D98179B
:1003900031F0828DE80FF11D858D90E008958FEF8B
:1003A0009FEF0895FC01918D828D981761F0828DE9
:1003B000DF01A80FB11D5D968C91928D9F5F9F7399
:1003C000928F90E008958FEF9FEF0895FC01538D79
:1003D000448D252F30E0842F90E0821B930B54171F
:1003E00010F0CF9608950197089581E593E0892B49
:1003F00049F080E090E0892B29F00E94510381119F
:100400000C9400000895FC01848DDF01A80FB11D3C
:10041000A35ABF4F2C91848D90E001968F7399273A
:10042000848FA689B7892C93A089B1898C91837018
:1004300080648C93938D848D981306C00288F38911
:10044000E02D80818F7D80830895EF92FF920F933E
:100450001F93CF93DF93EC0181E0888F9B8D8C8D70
:10046000981305C0E889F989808185FD26C0F62E9C
:100470000B8D10E00F5F1F4F0F731127E02E8C8D37
:10048000E8120CC00FB607FCFACFE889F989808121
:1004900085FFF5CFCE010E940302F1CF8B8DFE01C7
:1004A000E80FF11DE35AFF4FF0829FB7F8940B8FCE
:1004B000EA89FB89808180620AC09FB7F894EE893F
:1004C000FF896083E889F9898081837080648083F3
:1004D0009FBF81E090E0DF91CF911F910F91FF903E
:1004E000EF900895CF93DF93EC01888D8823C9F0B6
:1004F000EA89FB89808185FD05C0A889B9898C912D
:1005000086FD0FC00FB607FCF5CF808185FFF2CFC7
:10051000A889B9898C9185FFEDCFCE010E94030295
:10052000E7CFDF91CF910895CF92DF92EF92FF92C4
:100530001F93CF93DF93EC016A017B01122FE889AF
:10054000F98982E080834115514E61057105B1F052
:1005500060E079E08DE390E0A70196010E943311FD
:10056000DA01C9010197A109B109B695A795979537
:1005700087959C01211580E13807A8F0E889F98961
:10058000108260E874E88EE190E0A70196010E9475
:100590003311DA01C9010197A109B109B695A795EF
:1005A000979587959C01EC85FD853083EE85FF85C9
:1005B0002083188EEC89FD891083EA89FB8980816C
:1005C00080618083EA89FB89808188608083EA89F1
:1005D000FB89808180688083EA89FB8980818F7DA7
:1005E0008083DF91CF911F91FF90EF90DF90CF90AC
:1005F00008951F920F920FB60F9211242F938F938D
:100600009F93EF93FF93E0917601F09177018081C2
:10061000E0917C01F0917D0182FD12C0908180917A
:100620007F018F5F8F7320918001821751F0E091DD
:100630007F01F0E0EA59FE4F958F80937F0101C062
:100640008081FF91EF919F918F912F910F900FBE1D
:100650000F901F9018951F920F920FB60F921124B2
:100660002F933F934F935F936F937F938F939F93BA
:10067000AF93BF93EF93FF9386E691E00E9403024E
:10068000FF91EF91BF91AF919F918F917F916F916A
:100690005F914F913F912F910F900FBE0F901F9040
:1006A000189586E691E00E94B80121E0892B09F4B3
:1006B00020E0822F0895E6E6F1E01382128288EEB0
:1006C00093E0A0E0B0E084839583A683B78384E3BE
:1006D00091E09183808385EC90E09587848784EC1A
:1006E00090E09787868780EC90E0918B808B81ECFF
:1006F00090E0938B828B82EC90E0958B848B86ECE0
:1007000090E0978B868B118E128E138E148E089527
:100710000E9436050E94BD0C0E94B400C5EFD1E0D6
:100720000E940D012097E1F30E94F501F9CFCF92CD
:10073000DF92EF92FF920F931F93CF93DF936C01A1
:100740007A018B01C0E0D0E0CE15DF0581F0D80141
:100750006D918D01D601ED91FC910190F081E02D1C
:10076000C6010995892B11F02196EECF7E01C701B4
:10077000DF91CF911F910F91FF90EF90DF90CF907D
:1007800008956115710579F0FB0101900020E9F7EA
:100790003197AF01461B570BDC01ED91FC910280B4
:1007A000F381E02D099480E090E00895DC01ED9163
:1007B000FC910190F081E02D099462E471E00C94C9
:1007C000C1038F929F92AF92BF92EF92FF920F93CD
:1007D0001F93CF93DF93CDB7DEB7A1970FB6F894F1
:1007E000DEBF0FBECDBF7C01FA01CB0119A22230C2
:1007F00008F42AE08E010F5D1F4F822E912CA12C50
:10080000B12CBF01A50194010E943311F901CA0165
:10081000015011096A3010F4605D01C0695CD801B3
:100820006C93232B242B252B61F7B801C7010E9461
:10083000C103A1960FB6F894DEBF0FBECDBFDF9106
:10084000CF911F910F91FF90EF90BF90AF909F902D
:100850008F900895CF92DF92EF92FF920F931F93A4
:10086000CF93DF932115310581F4DC01ED91FC91EB
:100870000190F081E02D642FDF91CF911F910F91B6
:10088000FF90EF90DF90CF9009942A30310501F569
:1008900077FF1DC06A017B01EC016DE20E94D60367
:1008A0008C0144275527BA014C195D096E097F094F
:1008B0002AE0CE010E94E103800F911FDF91CF91CA
:1008C0001F910F91FF90EF90DF90CF9008952AE055
:1008D000DF91CF911F910F91FF90EF90DF90CF901C
:1008E0000C94E1039A01AB01770F660B770B0C9424
:1008F0002A040F931F93CF93DF93EC010E9472049D
:100900008C01CE010E94DD03800F911FDF91CF91FA
:100910001F910F9108951F920F920FB60F921124FD
:100920002F933F938F939F93AF93BF938091040234
:1009300090910502A0910602B09107023091030246
:1009400023E0230F2D3720F40196A11DB11D05C012
:1009500026E8230F0296A11DB11D20930302809368
:10096000040290930502A0930602B09307028091BF
:10097000080290910902A0910A02B0910B0201961F
:10098000A11DB11D8093080290930902A0930A0251
:10099000B0930B02BF91AF919F918F913F912F9197
:1009A0000F900FBE0F901F9018953FB7F89480914D
:1009B000080290910902A0910A02B0910B0226B59B
:1009C000A89B05C02F3F19F00196A11DB11D3FBF87
:1009D000BA2FA92F982F8827820F911DA11DB11D15
:1009E000BC01CD0142E0660F771F881F991F4A9511
:1009F000D1F708958F929F92AF92BF92CF92DF92DC
:100A0000EF92FF926B017C010E94D5044B015C01C7
:100A1000C114D104E104F10401F10E94F10C0E941F
:100A2000D504DC01CB0188199909AA09BB09883EC4
:100A30009340A105B10560F321E0C21AD108E10895
:100A4000F10888EE880E83E0981EA11CB11CC11429
:100A5000D104E104F10419F7DBCFFF90EF90DF90B0
:100A6000CF90BF90AF909F908F900895789484B569
:100A7000826084BD84B5816084BD85B5826085BD9A
:100A800085B5816085BDEEE6F0E080818160808380
:100A9000E1E8F0E010828081826080838081816063
:100AA0008083E0E8F0E0808181608083E1EBF0E02A
:100AB000808184608083E0EBF0E0808181608083CE
:100AC000EAE7F0E0808184608083808182608083B7
:100AD0008081816080838081806880831092C100E2
:100AE0000895833081F028F4813099F08230A1F0AC
:100AF00008958730A9F08830B9F08430D1F480911E
:100B000080008F7D03C0809180008F77809380006C
:100B1000089584B58F7702C084B58F7D84BD089514
:100B20008091B0008F7703C08091B0008F7D80935B
:100B3000B0000895CF93DF9390E0FC01E057FF4FA2
:100B40002491FC01EC55FF4F8491882361F190E0E2
:100B5000880F991FFC01EE53FF4FC591D491FC0102
:100B6000E854FF4FA591B491611109C09FB7F89463
:100B70008881209582238883EC912E230BC06230DC
:100B800061F49FB7F8948881322F3095832388834E
:100B9000EC912E2B2C939FBF06C08FB7F894E88161
:100BA0002E2B28838FBFDF91CF9108951F93CF9372
:100BB000DF93282F30E0F901E458FF4F8491F901C9
:100BC000E057FF4FD491F901EC55FF4FC491CC236E
:100BD000C1F0162F81110E947105EC2FF0E0EE0F8D
:100BE000FF1FE854FF4FA591B4919FB7F8941111DE
:100BF00004C08C91D095D82302C0EC91DE2BDC93FD
:100C00009FBFDF91CF911F910895E0913902F0913C
:100C10003A028081811103C08FEF9FEF0CC0E091F9
:100C20003902F0913A020580F681E02D0680F781C5
:100C3000E02D828193819093100280930F0208959A
:100C4000FF920F931F93CF93DF93EC01F62E009149
:100C5000180210911902809171029091720202960D
:100C60000E94810DCF3F8FEFD80789F4FF2079F0E4
:100C700060917102709172026E5F7F4F8BE192E022
:100C8000DF91CF911F910F91FF900C94280DC00F11
:100C9000D11FE0917102F0917202D383C2836091FF
:100CA000710270917202C017D10768F48091370207
:100CB000909138026E5F7F4FDF91CF911F910F911E
:100CC000FF900C94490D8091390290913A026E5F29
:100CD0007F4F0E94490D80910F0290911002C8171A
:100CE000D90720F4D0931002C0930F02DF91CF9167
:100CF0001F910F91FF90089580912402882309F19C
:100D00000FB6F8940F92E0912A02F0912B02C6815F
:100D1000D781CE0102960E94810D80911A028150E6
:100D200080931A02809124028150809324020F90B4
:100D30000FBE8F89988D0E94050DCE010E94050D72
:100D4000DBCF80914D02823010F00E94EE0D0E94A8
:100D5000CE0CD2CF5F926F927F928F929F92AF9282
:100D6000BF92CF92DF92EF92FF920F931F93CF9398
:100D7000DF933C016B015A014901502ECA010E94C8
:100D8000F20C8C01892B09F4E0C088E290E00E940B
:100D9000F20CEC01892BC9F0188F0F8BA50165EAC5
:100DA00070E0C8010E94851221E0A21AB1088F8963
:100DB000988DA80EB91EC114D104C9F0BE01675E9A
:100DC0007F4FF601C601089607C0C8010E94050DB5
:100DD000BCC0E817F90749F09F014191DB014D9331
:100DE000BD01D9012C912111F4CF18A201C0198E97
:100DF000052D043008F003E00E8B09A31AA26E0142
:100E0000B2E0CB0ED11CC6010E94240DCE010C967F
:100E10000E94240DD987C88784E090E0801B910947
:100E20009D878C87DB8BCA8B1BA21CA21DA21EA2D6
:100E30001FA2A401B301C5010E94A50D9983888357
:100E4000E114F10419F0F701D183C0830FB6F894CF
:100E50000F9280911A028F5F80931A028091710223
:100E600090917202892BD1F5D0937202C0937102D6
:100E700080911A02813009F041C08DE492E00E9415
:100E8000160D86E592E00E94160D8FE592E00E9415
:100E9000160D88E692E00E94160D84E492E00E940E
:100EA000160D8BE392E00E94160D8EE292E00E94F6
:100EB000160D85E292E00E94160D8BE192E00E94F1
:100EC000160D84E492E090933A02809339028BE30A
:100ED00092E0909338028093370210C080911602FE
:100EE00081110CC0E0917102F091720296898E8995
:100EF000891720F0D0937202C09371028091110281
:100F00008F5F809311028E8990911702981710F4C9
:100F100080931702F9E08F9FC0011124B601835B13
:100F20009D4F0E94280D0F900FBE809116028823BE
:100F300051F0E0917102F091720296898E899817B2
:100F400010F40E94EE0D81E001C08FEFDF91CF9190
:100F50001F910F91FF90EF90DF90CF90BF90AF90D7
:100F60009F908F907F906F905F900895EF92FF9287
:100F70000F938DE0E82E82E0F82E00E020E030E0D4
:100F800040EC50E061E571E08CE796E00E94AA0633
:100F90008130B1F40E940A0B813091F4F8942FEF64
:100FA0003FEF3093100220930F02809316021092AD
:100FB0001902109218020F91FF90EF900C94B60D49
:100FC0000F91FF90EF90089580910C028F5F8093B6
:100FD0000C0208950FB6F8940F9280911802909128
:100FE00019020F900FBE0895CF92DF92EF92FF92F9
:100FF0000F931F93CF93DF9380910C02811191C0C7
:1010000000911802109119020F5F1F4F10931902DF
:101010000093180201151105B9F4809139029091DD
:101020003A02209137023091380230933A022093ED
:1010300039029093380280933702809112028F5FB9
:10104000809312020E94050680910F029091100277
:10105000C0E00817190708F44FC0D9E0E091390241
:10106000F0913A028081811103C08FEF9FEF11C090
:10107000E0913902F0913A020580F681E02DE68098
:10108000F780D70112968D919C9113970817190735
:1010900028F49093100280930F022EC06701B2E0F3
:1010A000CB0ED11CC6010E94810DF7018489958960
:1010B000892B21F0C7010C960E94810DD70156960D
:1010C0008C9190911702981710F480931702D89F73
:1010D000C0011124B601835B9D4F0E94280DE09151
:1010E0007102F0917202D70156969C9186899817E9
:1010F00008F4B4CFC1E0B2CFE0917102F091720276
:10110000E689B9E0EB9FF0011124E35BFD4F80819C
:10111000823008F0C1E080911302882361F0C1E0C1
:101120000AC08091140290911502019690931502C5
:1011300080931402C0E08C2FDF91CF911F910F910B
:10114000FF90EF90DF90CF900895EF92FF920F9372
:101150001F93CF93DF930FB6F8940F9280910C02F8
:10116000815080930C0280910C02882311F080E062
:1011700056C080911A028823D1F3C0E0D0E089E004
:10118000F82EEE24E39480912E02882351F1E09111
:101190003302F0913402C681D781CE010C960E94B1
:1011A000810D8E010E5F1F4FC8010E94810D8E8937
:1011B00090911702981710F480931702F89EC001BF
:1011C0001124B801835B9D4F0E94280DE0917102AC
:1011D000F09172029E8986899817A8F2E092130214
:1011E000D2CFCD2B11F00E940506C0911402D091F0
:1011F0001502209761F011E00E94F407811110930D
:1012000013022197C9F710921502109214028091CF
:101210001302882309F4ABCF0E94EE0D81E00F90FA
:101220000FBEDF91CF911F910F91FF90EF90089526
:101230000F931F93CF93DF938C01EB010E94E40780
:101240004091180250911902F80120813181C901A1
:101250008C0F9D1F4217530720F48217930740F409
:1012600003C08217930730F021E04817590718F0A0
:1012700020E001C021E0F80191838083222329F03E
:1012800060E0841B950B0E9420060E94A508811136
:1012900002C00E94EE0DDF91CF911F910F91089532
:1012A00080910C02882321F081E08093130208953D
:1012B00010921302A0917102B0917202E09171023A
:1012C000F09172022D913C918789908D821793073E
:1012D00060F0609171027091720280917102909140
:1012E0007202675E7F4F0E94E40C8091170269E0F2
:1012F000482F50E0649F9001659F300D1124F90143
:10130000E35BFD4F9081911102C08150F1CFA1812B
:10131000B28112960D90BC91A02DB283A183205B67
:101320003D4FA217B30731F412962D913C911397BC
:101330003283218399E0949FF001959FF00D112451
:10134000E35BFD4F0180F281E02D268137813093F0
:10135000720220937102809317020895CF93DF9356
:10136000EB016091710270917202645F7F4F0E9485
:10137000490D61E0CE01DF91CF910C9420061F93BF
:10138000CF93DF93EB01142F609171027091720281
:10139000645F7F4F0E94280D112311F0CFEFDFEF24
:1013A000612FCE01DF91CF911F910C9420060F93F6
:1013B0001F93CF93DF93DC011596ED91FC91169767
:1013C000C681D7818E01045F1F4FC8010E94810D25
:1013D00080910C02811114C00A501109C8010E94A9
:1013E000810D8E8990911702981710F4809317023F
:1013F000B9E08B9FC0011124B801835B9D4F03C0EE
:10140000B8018EE292E00E94280DE0917102F09105
:1014100072029E898689891720F481E080931302E5
:1014200001C080E0DF91CF911F910F91089520912D
:101430001202FC012083209118023091190232839C
:1014400021830895CF93DF930FB6F8940F924091C4
:10145000180250911902DB012D913C912F3FBFEFF3
:101460003B07D9F0EC01E981FA81A0911202B88121
:10147000BA1719F04E175F0790F44E1B5F0BFB0174
:101480004217530738F4241B350B318320830E9405
:10149000170A03C01182108202C080E001C081E0FF
:1014A0000F900FBEDF91CF91089581E080931302DA
:1014B0000895009721F48091710290917202DC01ED
:1014C0005796ED91FC91589780E090E0DC012191D6
:1014D000253A21F40196A11DB11DF9CF08958091FF
:1014E0001602882331F080910C02882321F080E0DD
:1014F000089581E0089582E008950F931F93CF939C
:10150000DF93FC01892B11F480E02CC082A1815073
:1015100082A3268991A12917B9F38111F5CFEF0193
:101520008F010E5F1F4FC8010E94810D89A18E8B14
:10153000482F50E024E030E0241B350B3D872C87FA
:1015400090911702981710F48093170229E0249FB6
:10155000C001259F900D1124B801835B9D4F0E940F
:10156000280D81E0DF91CF911F910F9108950FB663
:10157000F8940F928091770290917802892BE9F488
:1015800086E892E00E94160D8DE792E00E94160D0B
:1015900086E892E090937C0280937B028DE792E054
:1015A00090937A028093790240E065E08AE00E949D
:1015B0009C0F90937802809377020F900FBE08954E
:1015C000FC0173836283918780874617570778F001
:1015D000421B530B8485958548175907C8F4BF01F2
:1015E0006E5F7F4F8091790290917A020DC0421711
:1015F000530718F46217730758F4BF016E5F7F4FEB
:1016000080917B0290917C020E94490D80E00895B8
:1016100081E00895EF92FF920F930E94B70A8091A4
:10162000770290917802892B81F085E7E82E82E09D
:10163000F82E03E020E030E045E550E066E571E09B
:101640008AEB9BE00E94AA0601C080E00F91FF9008
:10165000EF9008950F931F93CF93DF9300D000D0A6
:101660001F92CDB7DEB7A0917702B09178021097A4
:1016700029F1F90169835B834A839D838C836630FA
:10168000A4F40E946F0AE0917702F091780220E0C2
:10169000823011F4A80102C040E050E0BE016F5F4B
:1016A0007F4FCF010E94BF0F0AC020E0AF01BE01F3
:1016B0006F5F7F4FCD010E94551001C080E00F90F9
:1016C0000F900F900F900F90DF91CF911F910F917E
:1016D0000895EF92FF920F931F93CF93DF93E091C2
:1016E0007B02F0917C028081882389F10580F6815C
:1016F000E02DE080F180C681D7818E010E5F1F4F03
:10170000C8010E94810DE889F989CE0109958A896D
:1017100082FFE5CF8C859D858E0D9F1DE816F9060D
:1017200060F49B838A83D987C887B80180917B0244
:1017300090917C020E94490DD2CF00E010E020E0A1
:1017400030E0A70160E0CE010E942A0BC8CF809153
:10175000790290917A0290937C0280937B02F093BD
:101760007A02E0937902DF91CF911F910F91FF9060
:10177000EF900895CF93DF9300D000D01F92CDB7A4
:10178000DEB7E0917B02F0917C02D080DD2031F069
:101790000580F681E02DE080F18002C0E12CF12C83
:1017A0000E94E4070E94EA078C01809173029091E5
:1017B00074020817190720F40E94690B81E001C028
:1017C00080E01093740200937302811155C0DD20F4
:1017D000D9F10E151F0508F43EC00E94A508E0913E
:1017E0007B02F0917C020580F681E02DC680D780D7
:1017F000C60102960E94810DD60152968C91529795
:1018000082FF17C01C966D917C911D976E0D7F1DF8
:101810009701A801C6010E94E00A882369F000E050
:1018200010E020E030E0A70160E0C6010E942A0B32
:1018300003C08E7FF601828BD6015096ED91FC910C
:101840005197C60109951EC0E0917902F0917A0284
:10185000808141E0811140E0B701601B710B8091F4
:101860007702909178020E9417110E94A5088111B9
:1018700009C00E94EE0D06C00E94A50803C0898120
:1018800087FF0EC040E050E0BE016F5F7F4F809148
:101890007702909178020E9485108111F0CF71CF6C
:1018A000EC80FD80F70182859385892B21F0C701AB
:1018B00002960E94810D0E94EA076C0180917302DA
:1018C00090917402C816D90610F40E94690BD09248
:1018D0007402C0927302E9810E2E000CFF0BEA30F5
:1018E000F10580F6EC5CFF4FD70152968C910C9479
:1018F00055118160F701828B2A813B816485758552
:10190000620F731FA601C7010E94E00A882309F431
:10191000B9CFD7015096ED91FC915197C701099528
:10192000F701828982FFAECF4A815B8184859585EC
:10193000480F591F00E010E020E030E060E0C701F0
:101940000E942A0B9FCF8160F701828B6A817B8185
:10195000758764876C0D7D1D9601A601C7010E94E5
:10196000E00A90CF81FD04C0C7010E94050D8ACF17
:101970008E7FD70152968C9385CF209104013091B0
:1019800005018FEF98E0821B930B909301018093E8
:1019900000010E94B4000E94B60708950E940D0144
:1019A00085EF91E0892B11F00C94F5010895259AAB
:1019B0002D9A2FEF80E792E0215080409040E1F790
:1019C00000C000001D9AF5CF259A2D9A2FEF87EAC7
:1019D00091E6215080409040E1F700C000001D9A40
:1019E000F5CF0895CF93DF93EC010E94E407CE0179
:1019F0000E945B11EC010E94A508209711F40E943F
:101A0000D70CCE01DF91CF910895CF93DF9300974C
:101A100051F0EC010E94E407CE010E94F311DF9126
:101A2000CF910C94A508DF91CF910895FC01039606
:101A3000928381832FEF3FEF3483238396838583C3
:101A40009087878310820895FC011186108608957F
:101A5000CF93DF939C01FB01DC011196CD91DC91CA
:101A60001297D383C2838C819D81958384838C81DB
:101A70009D81DC0113967C936E9312977D836C831A
:101A800031872087F90180818F5F8083DF91CF913B
:101A900008950F931F93CF93DF938C01FB018081F7
:101AA00091818F3F2FEF920721F4E801AF81B88534
:101AB0000EC0D801139612962D913C911397E9010F
:101AC000488159818417950710F0D901F4CF1296F7
:101AD0008D919C91139793838283EC01FD83EC831A
:101AE000B583A4831396FC93EE9312971187008716
:101AF000F80180818F5F8083DF91CF911F910F91DB
:101B00000895CF93DF93FC01A085B18582819381F5
:101B100024813581EC013D832C83C481D5819B8355
:101B20008A8311968D919C911297E817F90721F4F9
:101B30001296DC93CE931197118610868C9181506A
:101B40008C938C91DF91CF910895FC016083319744
:101B5000708331971082319720E82083319710826B
:101B6000779740833197508383970895A89590EC99
:101B700088E10FB6F894A895809360000FBE90930B
:101B80006000A0917102B0917202CD91CDBFDD9144
:101B9000DEBFFF91EF91DF91CF91BF91AF919F9108
:101BA0008F917F916F915F914F913F912F911F91F5
:101BB0000F91FF90EF90DF90CF90BF90AF909F90EC
:101BC0008F907F906F905F904F903F902F901F90DD
:101BD0000F900FBE0F90089581E008950F920FB6F9
:101BE000F8940F921F9211242F923F924F925F927E
:101BF0006F927F928F929F92AF92BF92CF92DF921D
:101C0000EF92FF920F931F932F933F934F935F9306
:101C10006F937F938F939F93AF93BF93CF93DF93F4
:101C2000EF93FF93A0917102B09172020DB60D92E5
:101C30000EB60D920E945009A0917102B0917202ED
:101C4000CD91CDBFDD91DEBFFF91EF91DF91CF91BF
:101C5000BF91AF919F918F917F916F915F914F91C4
:101C60003F912F911F910F91FF90EF90DF90CF90B8
:101C7000BF90AF909F908F907F906F905F904F90AC
:101C80003F902F901F900F900FBE0F9008950F92CE
:101C90000FB6F8940F921F9211242F923F924F92F9
:101CA0005F926F927F928F929F92AF92BF92CF92EC
:101CB000DF92EF92FF920F931F932F933F934F93D7
:101CC0005F936F937F938F939F93AF93BF93CF93C4
:101CD000DF93EF93FF93A0917102B09172020DB662
:101CE0000D920EB60D9213BE0E94F40781110E9450
:101CF0005009A0917102B0917202CD91CDBFDD91DA
:101D0000DEBFFF91EF91DF91CF91BF91AF919F9196
:101D10008F917F916F915F914F913F912F911F9183
:101D20000F91FF90EF90DF90CF90BF90AF909F907A
:101D30008F907F906F905F904F903F902F901F906B
:101D40000F900FBE0F9008950E94470E18950FB682
:101D5000F8940F92FC01928D0F900FBE81E09111CB
:101D600080E008950F931F93CF93DF93EC01042F2E
:101D70001A8D4C8D41110BC088819981892BE9F511
:101D80008C819D810E947D0A1D821C8237C050E09B
:101D9000011115C08A819B810E947C122C8D8A8141
:101DA0009B81820F911D9B838A832C813D818217A9
:101DB000930718F1888199819B838A831EC08E8145
:101DC0009F810E947C128C8D90E091958195910964
:101DD0002E813F81280F391F3F832E8348815981EF
:101DE0002417350730F42C813D81820F931F9F8388
:101DF0008E83023011F41111115080E01F5F1A8F91
:101E0000DF91CF911F910F910895FC01CB01448D7B
:101E10004423A1F050E026813781240F351F3783FA
:101E20002683648175812617370720F02081318150
:101E300037832683668177810C947C120895EF9214
:101E4000FF921F93CF93DF93EC010FB6F8940F929C
:101E50001E8D7C0181E1E80EF11C11165CF489896C
:101E6000882341F0C7010E94D70981110E94550AB9
:101E70001150F3CF8FEF8E8F0F900FBE0FB6F894E7
:101E80000F921D8D7E0188E0E80EF11C11165CF4A6
:101E90008885882341F0C7010E94D70981110E94DB
:101EA000550A1150F3CF8FEF8D8F0F900FBEDF913A
:101EB000CF911F91FF90EF900895CF93DF93EC01A6
:101EC0000FB6F8940F92488159818B8D7C8D9A01C1
:101ED000879F200D311D11243D832C831A8E5B8337
:101EE0004A8390E00197789F9001799F300D1124EB
:101EF000CA01820F931F9F838E838FEF8D8F8E8FEA
:101F000061110CC08885882389F0CE0108960E9453
:101F1000D709882359F00E94EE0D08C0CE0108961B
:101F20000E94160DCE0141960E94160D0F900FBE15
:101F300081E0DF91CF9108950F931F93CF93DF93AB
:101F4000082F162F869FC00111244F960E94F20C75
:101F5000EC01009771F0111103C09983888303C0CD
:101F60004F96998388830B8F1C8F61E0CE010E946E
:101F70005D0FCE01DF91CF911F910F910895AF9228
:101F8000BF92CF92DF92FF920F931F93CF93DF9375
:101F900000D000D01F92CDB7DEB78C016B015D83FE
:101FA0004C83F22E80E0580198E0A90EB11C0FB6C8
:101FB000F8940F92F801228D938D291718F0F2E012
:101FC000FF1214C04F2DB601C8010E94B20EF801D5
:101FD0009189992321F0C80141960E94D709811166
:101FE0000E94EE0D0F900FBE81E050C02C813D810C
:101FF000232B19F40F900FBE48C0811104C0CE01ED
:1020000001960E94170A0F900FBE0E94E4070FB6B8
:10201000F8940F92F801858D8F3F09F4158EF80121
:10202000868D8F3F09F4168E0F900FBEBE016C5F38
:102030007F4FCE0101960E94220A811121C00FB666
:10204000F8940F92F801928D838D0F900FBE981324
:1020500011C06C817D81C5010E94AE09C8010E943A
:102060001F0F0E94A508882311F081E0A0CF0E94D5
:10207000EE0DFBCFC8010E941F0F0E94A508F5CFEF
:10208000C8010E941F0F0E94A50880E00F900F90CA
:102090000F900F900F90DF91CF911F910F91FF90B4
:1020A000DF90CF90BF90AF900895EF92FF921F9373
:1020B000CF93DF93EC019A8D8B8D981710F022301F
:1020C000E9F47A011E8D8A8D422FCE010E94B20E54
:1020D0001F3F81F48989882379F0CE0141960E94BF
:1020E000D709882349F0E114F10431F081E0F701C8
:1020F000808305C01F5F1E8F81E001C080E0DF91FB
:10210000CF911F91FF90EF900895AF92BF92CF9221
:10211000DF92FF920F931F93CF93DF9300D000D0F5
:102120001F92CDB7DEB78C016B015D834C8380E0DD
:10213000580191E1A90EB11C0FB6F8940F92F80165
:10214000F28CFF20A9F0B601C8010E94050FFA9495
:10215000F801F28E8085882339F0C80108960E9424
:10216000D70981110E94EE0D0F900FBE81E050C083
:102170002C813D81232B19F40F900FBE48C0811193
:1021800004C0CE0101960E94170A0F900FBE0E9454
:10219000E4070FB6F8940F92F801858D8F3F09F48C
:1021A000158EF801868D8F3F09F4168E0F900FBEA5
:1021B000BE016C5F7F4FCE0101960E94220A811101
:1021C0001CC0C8010E94A70E882389F06C817D8104
:1021D000C5010E94AE09C8010E941F0F0E94A508F8
:1021E000882311F081E0A8CF0E94EE0DFBCFC8013B
:1021F0000E941F0F0E94A508F5CFC8010E941F0F63
:102200000E94A508C8010E94A70E882359F380E008
:102210000F900F900F900F900F90DF91CF911F9123
:102220000F91FF90DF90CF90BF90AF900895CF9324
:10223000DF93EC010FB6F8940F928D8D8F3F09F468
:102240001D8E8E8D8F3F09F41E8E0F900FBE8A8DCE
:10225000811104C0CE0141960E94BF09CE01DF91D9
:10226000CF910C941F0FA1E21A2EAA1BBB1BFD01DC
:102270000DC0AA1FBB1FEE1FFF1FA217B307E40765
:10228000F50720F0A21BB30BE40BF50B661F771FBD
:10229000881F991F1A9469F760957095809590959D
:1022A0009B01AC01BD01CF010895EE0FFF1F05900A
:1022B000F491E02D09940F931F93CF93DF93823015
:1022C000910510F482E090E0E0919102F091920289
:1022D00020E030E0A0E0B0E0309719F1408151817A
:1022E0000281138148175907C8F08417950769F4CC
:1022F000109731F012960C93129713961C9327C0E7
:10230000009391021093920222C02115310519F019
:102310004217530718F49A01BD01EF01DF01F801DC
:10232000DBCF21153105F9F0281B390B243031059D
:1023300080F48A819B816115710521F0FB019383F3
:10234000828304C09093920280939102FE013296A0
:1023500044C0FE01E20FF31F819391932250310993
:10236000398328833AC020918F0230919002232B29
:1023700041F42091020130910301309390022093A7
:102380008F0220910001309101012115310541F4A6
:102390002DB73EB74091040150910501241B350B28
:1023A000E0918F02F0919002E217F307A0F42E1B48
:1023B0003F0B2817390778F0AC014E5F5F4F2417A9
:1023C000350748F04E0F5F1F5093900240938F02E5
:1023D0008193919302C0E0E0F0E0CF01DF91CF91D3
:1023E0001F910F910895CF93DF93009709F481C057
:1023F000FC01329713821282A0919102B091920255
:10240000109781F420813181820F931F20918F02D8
:10241000309190022817390751F5F0939002E0931C
:102420008F0267C0ED0120E030E0CE17DF0740F4F7
:102430004A815B819E0141155105F1F0EA01F5CF1A
:10244000D383C28340815181840F951FC817D90758
:1024500059F488819981840F951F02969183808316
:102460008A819B81938382832115310529F4F0931E
:102470009202E09391023DC0E901FB83EA83499116
:102480005991C40FD51FEC17FD0761F4808191812C
:10249000840F951F0296E901998388838281938135
:1024A0009B838A83E0E0F0E012968D919C911397D4
:1024B000009719F0FD01DC01F7CF8D919C911197E8
:1024C0009D012E5F3F4F820F931F20918F0230910D
:1024D00090022817390769F4309729F41092920274
:1024E0001092910202C013821282B0939002A093C4
:1024F0008F02DF91CF910895FB01DC0102C00190B2
:102500000D9241505040D8F70895DC0101C06D9301
:0C25100041505040E0F70895F894FFCFD0
:10251C000000930220005461736B426C696E6B4C2B
:10252C00454431005461736B426C696E6B4C45448D
:10253C0032005461736B426C696E6B4C45443300D2
:10254C000000000025029703E6017202B801D201D7
:10255C00C4010D0A006E616E00696E66006F7666CE
:0E256C000049444C4500546D722053766300C4
:00000001FF
