:100000000C9434000C9446000C9446000C9446006A
:100010000C9446000C9446000C9446000C94460048
:100020000C9446000C9446000C9446000C94660018
:100030000C9446000C9446000C9446000C94460028
:100040000C9488000C9446000C9446000C944600D6
:100050000C9446000C9446000C9446000C94460008
:100060000C9446000C94460011241FBECFEFD8E03C
:10007000DEBFCDBF21E0A0E0B1E001C01D92A930FC
:10008000B207E1F70E9479000C940D010C94000076
:10009000259AF89410928000E1E8F0E0108288E060
:1000A0009DE390938900809388008081886080839D
:1000B000808181608083808184608083EFE6F0E0CE
:1000C0008081826080837894089508951F920F92B2
:1000D0000FB60F9211248F939F9395B180E28927D9
:1000E00085B99F918F910F900FBE0F901F9018951B
:1000F00008950E94D2000E9478000E944800C0E04B
:10010000D0E00E9465002097E1F30E940000F9CF43
:100110001F920F920FB60F9211242F933F938F933C
:100120009F93AF93BF938091010190910201A091A1
:100130000301B09104013091000123E0230F2D371A
:1001400020F40196A11DB11D05C026E8230F0296DB
:10015000A11DB11D20930001809301019093020124
:10016000A0930301B09304018091050190910601D1
:10017000A0910701B09108010196A11DB11D8093C6
:10018000050190930601A0930701B0930801BF9168
:10019000AF919F918F913F912F910F900FBE0F9034
:1001A0001F901895789484B5826084BD84B5816071
:1001B00084BD85B5826085BD85B5816085BDEEE66F
:1001C000F0E0808181608083E1E8F0E0108280814E
:1001D00082608083808181608083E0E8F0E08081BC
:1001E00081608083E1EBF0E0808184608083E0EBDC
:1001F000F0E0808181608083EAE7F0E080818460C4
:10020000808380818260808380818160808380811F
:0E021000806880831092C1000895F894FFCF9B
:00000001FF
